:020000020000FC
:100000000FEF0CB900EF00B900E008B98098819AB1
:10001000899A00E014E0B0E4A0E0D0E4C4E00D93DD
:10002000202F5AD029931A95D1F714E02D911A95C3
:10003000E9F7B4E0A0E518E00C9108680D931A9573
:10004000D9F703D063D023D0FCCF0F931F932F9306
:100050000FEF0DB901B1006F01B9B0E4A4E0009158
:1000600008400395037000930840A00F08F4B3956F
:100070001C911DB911B120E1003019F0220F0A9531
:10008000FBCF122711B92F911F910F910895909BCB
:1000900008958998899A0F931F932F93B0E4A0E055
:1000A0000AB127D0202F16E0010F0DF411C0022F46
:1000B00014E02C910D93022F1A95D9F7B0E4A0E02B
:1000C000D0E4C4E014E02D9107D029931A95D9F714
:1000D0002F911F910F910895F0E0E8EE00E02F704E
:1000E000E20FF01F24910895014F12064C24200FB7
:1000F00000041F932F9320E018E0000F27951A9516
:100100001030D9F7022F2F911F9108950F931F934D
:1001100001E015E81A95F1F70A95D9F71F910F91AB
:02012000089540
:00000001FF
