:020000020000FC
:100000000FEF0CB900EF00B900E008B9809819D0E3
:1000100005D001D0FCCF06B101700895FCDF00309F
:10002000E9F726D0F8DF0130E9F722D00895F3DFB1
:100030000030E9F725D0EFDF0130E9F721D0EBDF21
:10004000089504D007D004D023D0089520980895AF
:10005000209A08950F931F930AE611EE1A95F1F76F
:100060000A95D9F715D014D013D01F910F91089588
:100070000F9307E60A9571F4000000000F910895B0
:100080000F930FE30A95F1F7000000000F91089518
:0E0090000F930AE00A95F1F700000F91089512
:00000001FF
