:020000020000FC
:040000000C945E00FE
:040024000C94F9003F
:1000B8000C9404010FEF0CB900EF00B900E0809830
:1000C800819A899A829A8A98839A8B9A01E00093F6
:1000D8000E4000E00093010A01E000930A0A06E2DC
:1000E8000093260A00E00093270A0DE00093000A17
:1000F800009190040260009390047894B0E4A0E02A
:10010800D0E4C4E000E0202F41D114E00D932993FE
:100118001A95E1F7F89405D018D02BD0789433D0FD
:10012800F9CF04D038D004D058D00895209A089533
:100138002098089506B101700895FCDF0030E9F7B2
:100148000895F8DF0130E9F70895F7DF30D0F9DFD7
:100158002ED00895F2DF41D0F4DF39D0EBDF0895D7
:100168001F9318E0F7DF0695221F1A95D9F71F91FC
:1001780008951F9315E0B0E4A9E0F2DF2D931A95D6
:10018800E1F71F9108950F930FE605D026D00A9541
:10019800E1F70F9108950F931F930AE611EE1A9550
:1001A800F1F70A95D9F713D01F910F9108950F937E
:1001B80007E60A95A1F4000000000F9108950F9337
:1001C8000FE30A95F1F7000000000F9108950F93CF
:1001D80002E20A9521F40F9108950F9307E10A9519
:1001E800F1F7000000000F9108950F930FB70F93D8
:1001F8003AD001E000930B0A0F910FBF0F911895A9
:10020800F8940F930FB70F9305D00F910FBF0F916D
:10021800789418950091890400FF089502D005D0BC
:10022800089501E00093890408950F9300910E400A
:100238000395033009F400E000930E4002D00F91BB
:1002480008951F93013031F0023041F089988A9A5D
:100258008B9A07C08A98899A8B9A03C08B988A9A36
:10026800899A1F9108950F931F932F930FEF0DB93C
:1002780001B1006F01B921D072D00091054010E89A
:10028800012700930540B0E4A4E0009108400395DD
:10029800037000930840A00F08F4B3951C911DB992
:1002A80011B120E1003019F0220F0A95FBCF122777
:1002B80011B92F911F910F9108950F931F932F93A9
:1002C80020910E40213089F02230F1F000E00093B7
:1002D80003400091094069D0109302400093014007
:1002E80000910A400093004036C000E000930340AC
:1002F80000910B405AD010930240009301400091A6
:100308000C400093004027C000910B401AE0A9D090
:1003180000910C4030E0100F231F012F122F22E113
:100328004BD000E81CE0020F131F68D00D2D1E2DC6
:100338002E2D3F2D007F1F70207F3F7044E00695D3
:1003480026954A95E1F73093034020930240109395
:100358000140009300402F911F910F9108951F9322
:100368002F93AF93BF93CF93DF93B0E4A0E0D0E493
:10037800C4E014E02D910AD029931A95D9F7DF919A
:10038800CF91BF91AF912F911F9108950F93F3E0F3
:10039800E8EA00E02F70E20FF01F24910F91089512
:1003A80081CF9286CCA4A08F808411270A5010F0A8
:1003B8001395FCCF065F08955527442760E13695CD
:1003C800279510F4400F511F579547953795279556
:1003D8006A95B9F70895EE24FF1841E1001F111F2F
:1003E8004A9509F40895EE1CFF1CE21AF30A20F45A
:1003F800E20EF31E8894F2CF0894F0CF0F931F9368
:100408002F933F9320E140E040930F4040931040EA
:1004180040931140D0900F40E0901040F090114070
:10042800000F111FDD1CEE1CFF1CD0920F40E09244
:100438001040F09211402A9529F43F912F911F9175
:100448000F910895E2E1F0E432913D5F33FD30838E
:100458003081305D37FD3083EF30B1F7F034A1F7EC
:10046800D9CF222738E0169508F4200F279517953D
:060478003A95D1F708954A
:00000001FF
