:020000020000FC
:040000000C945E00FE
:040024000C948D00AB
:1000B8000C9498000FEF0CB900EF00B900E008B9F4
:1000C800809808E800934B041FEF10934C0400E05D
:1000D8000093010A01E000930A0A01E00093260A4E
:1000E80000E00093270A0DE00093000A00919004B5
:1000F8000260009390047894B0E4A0E0D0E4C4E0F7
:1001080000E0202F80D014E00D9329931A95E1F791
:10011800FFCF0F930FB70F933CD001E000930B0A6A
:100128000F910FBF0F911895F8940F930FB70F9376
:1001380005D00F910FBF0F917894189500918904FD
:1001480000FF089502D005D0089501E000938904C6
:1001580008950F931F932F93BF93AF93DF93CF937C
:100168000AB139D00A306CF4B0E4A0E0D0E4C4E0BD
:10017800202F14E00C912D9346D02993202F1A9507
:10018800C9F7CF91DF91AF91BF912F911F910F9137
:1001980008950F931F932F930FEF0DB901B1006FBF
:1001A80001B9B0E4A4E000910840039503700093FE
:1001B8000840A00F08F4B3951C911DB911B120E1B6
:1001C800003019F0220F0A95FBCF122711B92F9191
:1001D8001F910F9108951F932F9320E018E0000FAF
:1001E80027951A951030D9F7022F2F911F9108954E
:1001F8000F931F9301E015E81A95F1F70A95D9F7BF
:100208001F910F9108950F93F2E0E2E200E02F7042
:10021800E20FF01F24910F910895014F12064C240C
:04022800200F00049F
:00000001FF
