:020000020000FC
:100000000FEF0CB900EF00B900E008B9809808E8DC
:1000100000934B041FEF10934C0400919004026076
:1000200000939004B0E4A0E0D0E4C4E000E0202F0E
:100030006ED014E00D9329931A95E1F72ED05CD081
:1000400001D0FCCF0091890400FF089502D005D0B3
:10005000089501E00093890408950F931F932F934F
:10006000BF93AF93DF93CF930AB139D00A306CF4CA
:10007000B0E4A0E0D0E4C4E0202F14E00C912D9374
:1000800046D02993202F1A95C9F7CF91DF91AF91D0
:10009000BF912F911F910F9108950F931F932F934D
:1000A0000FEF0DB901B1006F01B9B0E4A4E0009108
:1000B00008400395037000930840A00F08F4B3951F
:1000C0001C911DB911B120E1003019F0220F0A95E1
:1000D000FBCF122711B92F911F910F9108951F93F4
:1000E0002F9320E018E0000F27951A951030D9F7CC
:1000F000022F2F911F9108950F931F9301E015E890
:100100001A95F1F70A95D9F71F910F9108950F935A
:10011000F1E0E2E200E02F70E20FF01F24910F9176
:0C0120000895014F12064C24200F00042B
:00000001FF
