:020000020000FC
:100000000FEF0CB900EF00B900E008B98098819AB1
:10001000899AB4E0A0E518E00C9108680D931A9550
:10002000D9F703D060D023D0FCCF0F931F932F9329
:100030000FEF0DB901B1006F01B9B8E2A4E0009172
:1000400008280395037000930828A00F08F4B395BF
:100050001C911DB911B120E1003019F0220F0A9551
:10006000FBCF122711B92F911F910F910895909BEB
:1000700008958998899A0F931F932F93B8E2A0E06F
:100080000AB124D014E02C910D93022F1A95D9F7C0
:10009000B8E2A0E0D8E2C4E014E02D9107D02993A3
:1000A0001A95D9F72F911F910F910895F0E0ECEB7D
:1000B00000E02F70E20FF01F24910895014F120607
:1000C0004C24200F00040860314230381F932F93D6
:1000D00020E018E0000F27951A951030D9F7022F6D
:1000E0002F911F9108950F931F9301E015E81A9522
:0C00F000F1F70A95D9F71F910F910895C0
:00000001FF
